:020000040800F2
:10000000400800209D010008E9010008EB010008FC
:10001000ED010008EF010008F101000800000000F8
:10002000000000000000000000000000F3010008D4
:10003000F501000800000000F7010008011D00089C
:10004000ED0B0008F10B0008F30B0008EF0B0008A4
:10005000A51600080000000017090008E91F0008A5
:1000600075200008C51B0008C71B00081B090008F5
:100070001D0900080000000000000000F11E00083B
:10008000F91E0008FB1E0008FD1E0008FF1E0008E8
:10009000011F000831150008E50D0008E51F0008E4
:1000A000E71F000800000000000000000000000042
:1000B000000000001509000819090008FB010008EC
:1000C00000F002F800F03EF80CA030C80838241800
:1000D0002D18A246671EAB4654465D46AC4201D180
:1000E00000F030F87E460F3E0FCCB6460126334274
:1000F00000D0FB1AA246AB4633431847203300001A
:1001000040330000103A02D378C878C1FAD85207B9
:1001100001D330C830C101D504680C6070470000BD
:100120000023002400250026103A01D378C1FBD813
:10013000520700D330C100D50B6070471FB51FBDFB
:1001400010B510BD00F0BAFB1146FFF7F7FF02F043
:1001500034FB00F0D2FB03B4FFF7F2FF03BC02F064
:100160002BFB000070B505460C46164602E00FCC8E
:100170000FC5103E102EFAD2082E02D303CC03C5B1
:10018000083E042E07D301CC01C5361F03E02178B9
:100190002970641C6D1C761EF9D270BD1A48016866
:1001A0001A4A114301601A481A4901601A4819494C
:1001B000016015480168194A114001601848194941
:1001C000016019481949016019481A4901601A4823
:1001D0001A4901601A481949016015481949016016
:1001E0001948804719480047FEE7FEE7FEE7FEE7AB
:1001F000FEE7FEE7FEE7FEE7FEE7FEE714481549E7
:10020000154A164B70470000003000400100000006
:100210003C08014000015FA07C080140FEFFFFFF99
:100220001030004010F05FA0DC03004001005FA030
:1002300000100240200180005C10024060005FA0BE
:10024000BC10024000000000051D0008C1000008AD
:10025000400100204008002040030020400300200F
:1002600070B500252C46AD1A9C4112DA00252C46AB
:100270002D1A8C4102DA00F0A0FA70BD0024404231
:100280008C41214600F099FA002440428C412146DD
:1002900019E000252C462D1A8C410ADA002452421E
:1002A0009C41234600F089FA002440428C412146BB
:1002B00070BD002452429C414042234600248C41A0
:1002C000214600F07AFA002452429C41234670BD38
:1002D00030B5441C03E00178401C00290DD0810793
:1002E000F9D10B4BDD0104C8D11A91432940FAD052
:1002F000001B0A0603D0C01E30BD001B30BD0A041F
:1003000001D0801E30BD0902FCD0401E30BD00006F
:1003100001010101F8B5042A2CD3830712D00B7810
:10032000491C0370401C521E83070BD00B78491CDC
:100330000370401C521E830704D00B78491C0370C5
:10034000401C521E8B079B0F05D0C91ADF002023CB
:10035000DE1B08C90AE0FFF705FFF8BD1D4608C906
:10036000FD401C46B4402C4310C0121F042AF5D295
:10037000F308C91A521EF0D40B78491C0370401CB4
:10038000521EEAD40B78491C0370401C012AE4D4A5
:1003900009780170F8BD0000024670B50A43920763
:1003A0002AD11E4DEE0104C808C9541B94433440A1
:1003B00017D0D0B2D9B2401A2106014310D190B261
:1003C00099B2401A210401430AD110021902000A0D
:1003D000090A401A2102014302D1100E190E401AD7
:1003E00070BD9A42DFD010BA19BA884201D90120F3
:1003F00070BD0020C04370BD02780B78401C491CC2
:10040000002A09D09A4207D102780B78401C491C77
:10041000002A01D09A42EFD0D01A70BD010101012B
:10042000002203098B422CD3030A8B4211D30023F1
:100430009C464EE003460B433CD4002243088B42CB
:1004400031D303098B421CD3030A8B4201D3944658
:100450003FE0C3098B4201D3CB01C01A524183094B
:100460008B4201D38B01C01A524143098B4201D305
:100470004B01C01A524103098B4201D30B01C01A30
:100480005241C3088B4201D3CB00C01A52418308AA
:100490008B4201D38B00C01A524143088B4201D3D7
:1004A0004B00C01A5241411A00D201465241104637
:1004B00070475DE0CA0F00D04942031000D34042AC
:1004C000534000229C4603098B422DD3030A8B42E2
:1004D00012D3FC22890112BA030A8B420CD3890180
:1004E00092118B4208D3890192118B4204D3890166
:1004F0003AD0921100E08909C3098B4201D3CB01A4
:10050000C01A524183098B4201D38B01C01A524158
:1005100043098B4201D34B01C01A524103098B425C
:1005200001D30B01C01A5241C3088B4201D3CB0047
:10053000C01A524183088B4201D38B00C01A52412A
:10054000D9D243088B4201D34B00C01A5241411A01
:1005500000D20146634652415B10104601D340422F
:10056000002B00D54942704763465B1000D34042E0
:1005700001B50020C046C04602BD704770477047B5
:10058000F0B5FF252D04C609C209FF2704462E40F9
:100590000137CB093E4348402A402B400746002AFA
:1005A0006BD0002B69D0AA4267D0AB4265D000283F
:1005B00000DA32460125ED0529432C4309022002C9
:1005C000090AD21A4B0C7F24E31A434C000A7C44DC
:1005D000E35C7D242404121914145B00A2188842E1
:1005E00001D3521C00E0400049420C465C432411F8
:1005F0005C43DB016415E318040A5C43C502200D6B
:100600000C4644436419250A5D432303EC0C0D4654
:10061000654300030019EB184C42A34201D35B1859
:10062000401CD4052018002B07D05B00C91804D348
:10063000401C002901D1400840003F2189048A4222
:1006400009D3002A08DC1106090F04D00321490749
:100650004018C00FC007F0BD0122410012068918E2
:100660007F2252069142F6D205214907C84201D5A0
:100670009010F0BDFF20C005F0BD002F00DA32461B
:100680001648AA4207D2AB4205D21902090E17D06A
:10069000F80FC007F0BDFF2563002D06AB42F9D867
:1006A0004900A942F6D8AB4201D1A942F2D0A942F1
:1006B00001D1002101E061004908D0050843F0BDE7
:1006C0001102090EFBD0FF200243D005F0BD0A46FF
:1006D0000146104654E700000A2E00000000C07FCB
:1006E00010B501469E240002CA15A307002A02D0B5
:1006F0001843002A04DBA21A002A0CDDD04010BDEA
:100700001206120E01D140004008A21A03D4D040B4
:1007100040420028F3DDFF2248001206904201D932
:10072000002010BDC817C043584010BD0102C215BB
:1007300004D00123DB071943002A0ADB9E239A1AFF
:1007400002D40846D0407047FF2241001206914271
:1007500001D900207047C017C04370471F22030C07
:1007600002D10F2200041CD0030E01D10002083A6E
:10077000030F01D10001121F830F01D18000921ECF
:10078000002801DB4000521ED205511802125118F8
:100790001922904004D3491C002801D1490849007E
:1007A00008467047C10FC90700D040420122920796
:1007B0001143D3E701218907D0E7FEB5054610466E
:1007C0000C46184373D0AE468C460020AD1A014645
:1007D0009C4167D36646002701243D46B61A9D41D9
:1007E00002D313463A462124654676462F04360C3A
:1007F0003E432D0CB61A9D4104D3150C1B042B430C
:1008000012041034654676462F06360A3E432D0AFA
:10081000B61A9D4104D3150E1B022B431202083455
:10082000654676462F0736093E432D09B61A9D4187
:1008300004D3150F1B012B431201241D6546764678
:10084000AF07B6083E43AD08B61A9D4104D3950FD5
:100850009B002B439200A41C65467646EF07760862
:100860003E436D08B61A9D411AD392185B41641C31
:1008700016E00018764665464941B71A9D41019138
:10088000009009D36046B11A98418E46844600987C
:1008900001990025401C6941DD0752082A435B0885
:1008A000641EE6D57246634603B0F0BDFFE7002044
:1008B0000146C046C0462A462346F5E7754600F085
:1008C00025F8AE46050069465346C008C000854677
:1008D00018B020B5FFF792FC60BC00274908B64667
:1008E0000026C0C5C0C5C0C5C0C5C0C5C0C5C0C53F
:1008F000C0C5403D49008D46704710B50446C0460E
:10090000C0462046FFF727FC10BD00000048704796
:10091000E00000207047704770477047704700B58F
:100920007D230246DB0002E0184600F00FF8521E5D
:10093000FAD200BD30B57D250446ED0002E0284620
:10094000FFF7EDFF641EFAD230BD000024214843BA
:100950000549486100208861052008610869C003D5
:10096000FCD504200861704700E000E000210A4641
:100970008B00491CC2500C29FADB00210163416342
:1009800002874287C2634030027042707047F8B5F8
:100990000A460446218F408F89000C2808D36358EB
:1009A000266BDD17606BF31AA8412363606301E0D7
:1009B000401C60876250206BD317616B80185941CF
:1009C000616306462063208F0F460C21401CFFF711
:1009D00027FD21870025628F2B4630463946FFF7D9
:1009E0003FFC024620464030417800290CD0E16BA4
:1009F000511A00D54942C82905DA0178FF2903D2E6
:100A0000491C017000E005700121E263417010464D
:100A1000F8BDF0B54B880A88022B04D0012B06D014
:100A2000002B0BD011E0036A134303620DE0036A4D
:100A300093430362026C0B881A4305E0036A9343F5
:100A40000362026C0B889A430264036E00220E88D4
:100A5000032701249440264206D054003D46A54079
:100A6000AB438D88A5402B43521C102AF1D303665B
:100A7000F0BD0068084000D00120704708B5009024
:100A8000002007E0CA0701D0009A1070009A4908B8
:100A9000521C00920029F5D108BD08B50090012034
:100AA00007E0CA0701D0009A1070009A4908521C4A
:100AB00000920029F5D108BD002A026801D00A433E
:100AC00000E08A43026070471CB508206946088030
:100AD00000208880012048800148FFF79AFF1CBD54
:100AE000001201401CB5082069460880002088805B
:100AF000022048800148FFF78CFF1CBD0012014016
:100B00007CB508206A4610800024948001200A4D9C
:100B1000508069462846FFF77CFF10216A46118005
:100B200094800220508069462846FFF772FF10210A
:100B30002846FFF7B2FF7CBD00120140F8B5002443
:100B4000FFF7D0FF274E012208213046FFF7B4FF00
:100B50000120FFF7FBFE002210213046FFF7ACFF1B
:100B6000FFF7B2FF204D00E06D1E08213046FFF771
:100B700080FF002802D0002DF6D131E0002D2FD0CB
:100B800000250127012210213046FFF795FF0120A3
:100B9000FFF7DCFE002210213046FFF78DFF6400D6
:100BA00008213046FFF765FF002800D03C430120B4
:100BB000FFF7CCFE6D1CEDB2182DE3D301221021FE
:100BC0003046FFF779FF0120C00544400120FFF7C0
:100BD000BDFE002210213046FFF76EFF2046F8BD13
:100BE0000020F8BD00120140FFFF0F007047704762
:100BF0007047704710B500F027FE10BD10B5064BCA
:100C00001A5C0A4205D0012901D08A431A540120F6
:100C100010BD002010BD00002900002010B50F4AB3
:100C2000012806D0022807D003280ED004280AD1B4
:100C30000EE00121890201E00121C9021046FFF7FF
:100C400018FF002807D0002010BD01210903F5E797
:100C500001214903F2E7012010BD0000001001400E
:100C60007CB5012568464580A90201800024114E0B
:100C7000848069463046FFF7CCFE68464580E9022D
:100C80000180848069463046FFF7C3FE6846458090
:100C900029030180848069463046FFF7BAFE684622
:100CA000458069030180848069463046FFF7B1FEC4
:100CB0007CBD000000100140F8B5484B0027484CAF
:100CC0005F7058784100625A401C521EC0B2625296
:100CD00058700528F5D31878401CC0B21870142835
:100CE0007BD33E4D1F705F7011353C493B4E891CD4
:100CF000881E4078F61D095C3154FFF78FFF721F84
:100D0000911E4978012850546A5C05D0520852005F
:100D10006A54002808D00DE001231A436A54735C1A
:100D2000002B07D1022303E0735C012B02D10423C3
:100D30001A436A54294B294E0C335A5C002A08D0B6
:100D4000012A0ED0022A1DD0032A2DD0042A2ED02B
:100D50003EE001283CD17D2000014A00A052012044
:100D600035E0002804D04800225A002A05D02FE0A0
:100D7000C8204A00A052022029E064222252685C66
:100D8000202221E0012804D04800205A002806D063
:100D90001EE0685C102210436854032017E0685C72
:100DA00008221043685409E0002807D010E000280A
:100DB00004D04800225A002A02D009E05F5407E01C
:100DC00064222252685C4022104368540420585424
:100DD000491CC8B27070052887D3F8BD18000020E0
:100DE00068000020704700001CB50220694648805A
:100DF00039208002088000200B4C88802046FFF7B5
:100E000008FE21152046FFF748FE61142046FFF733
:100E100044FE012189032046FFF73FFE0121C9035B
:100E20002046FFF73AFE1CBD0011014010B5811E9F
:100E300004290DD20B4A02280BD003280CD0042819
:100E40000DD0052804D10121C9031046FFF725FE66
:100E500010BD01218902F8E701214903F5E70121CD
:100E60008903F2E70011014010B5811E04290DD25B
:100E70000B4A02280BD003280CD004280DD00528DB
:100E800004D10121C9031046FFF7F8FD10BD01216F
:100E90008902F8E701214903F5E701218903F2E717
:100EA0000011014070B5022806D0032807D004289D
:100EB00008D005280BD108E00124A40207E0012492
:100EC000640304E00124A40301E00124E403064DCB
:100ED00021462846FFF7D2FD0120FFF72BFD2146D2
:100EE0002846FFF7DAFD70BD0011014005490028D2
:100EF000086802D08022104301E0034A10400860D5
:100F000070470000802202407FFF000010B50B49AF
:100F10000A680B4B01241A400388224313430B60D9
:100F20004A68FF23B1339A434A604A6843881A43A8
:100F30004A6082688A604068086110BD8022024071
:100F4000EE7CFFFF10B5164C207801F00DF92078EB
:100F500000280AD001280BD002280CD0032803D186
:100F600001F052FB00F0E8FE10BD00F0ABFF10BD39
:100F700000F030FF10BD01F047FB01F0F7FAE16827
:100F8000086001F0E7FAE168486006480078002848
:100F900001D00548086000F02FFF00F0BBFE10BD37
:100FA000080000203100002000007A447CB50220B7
:100FB0006946488084020B4E0C803046FFF729FDBD
:100FC000650069460D803046FFF723FD012221466A
:100FD0003046FFF771FD012229463046FFF76CFDD0
:100FE0007CBD000000110140F8B5144E00240746F6
:100FF000F5148020E040384201D0012200E00022B8
:10100000012109033046FFF757FD012229463046EA
:10101000FFF752FD002229463046FFF74DFD641CC4
:10102000E4B2082CE5D3012229463046FFF744FDFF
:10103000002229463046FFF73FFDF8BD0011014070
:1010400070B501220B4D140321462846FFF734FDED
:101050000122D60231462846FFF72EFD0022214606
:101060002846FFF729FD002231462846FFF724FDD8
:1010700070BD00000011014070B50124084D24032B
:10108000002221462846FFF717FD0122D1022846FB
:10109000FFF712FD012221462846FFF70DFD70BD26
:1010A0000011014010B50C46B021084300F020FAB1
:1010B0002009103000F01CFA2007000F00F018FA89
:1010C00010BD0000F8B5CF004600083FB01E154621
:1010D000F9B2C0B2FFF7E6FF104900242801451815
:1010E0002819FF38FF380238007800F011FA641C24
:1010F000E4B2082CF4D3761EF9B2F0B2FFF7D2FFB7
:1011000000242819FF38FF380238007A00F000FA6E
:10111000641CE4B2082CF4D3F8BD0000FC290008DC
:10112000F7B5044688B01C2005900A98FFF7D0F860
:1011300006906000811E0027401E049103904AE043
:101140000A98C019044601F021FB0290042801D935
:101150000420029000220092019202462146684635
:10116000FFF7D8F800242F4D0AE0242060434619E9
:1011700069463046FFF710F9002831D0641CE4B20C
:1011800005988442F1D3059884421ED1099806013E
:101190000498103EF1B2C0B2FFF784FF224D002444
:1011A000285D00F0B5F9641CE4B2102CF8D3039864
:1011B000F1B2C0B2FFF776FF00242819007C00F0DE
:1011C000A7F9641CE4B2102CF7D30998401CC0B2F4
:1011D000099002983F1806988742B1D30BB0F0BD32
:1011E000099800011038C1B207900498C0B2FFF707
:1011F00059FF00257019007900F08AF96D1CEDB2D5
:10120000102DF7D30798C1B20398C0B2FFF74AFF79
:1012100000257019007D00F07BF96D1CEDB2102DDA
:10122000F7D3B0E7EC2F0008C0000020FFB581B075
:101230001E4618460025FFF74BF80746002405E038
:10124000301901F0A3FA24186D1CEDB2BC42F7D39B
:10125000324602990198FFF763FF0198460020E0AB
:10126000029840190006070D103FB01EF9B2C0B237
:10127000FFF718FF0024002000F04AF9641CE4B2D4
:10128000102CF8D3701EF9B2C0B2FFF70BFF002488
:10129000002000F03DF9641CE4B2102CF8D36D1C62
:1012A000EDB203988542DBD305B0F0BDFFB58DB03C
:1012B00000240A94FF210F98169FC9051E46C842B4
:1012C00005D301200A900F98090248400F90FFF7BC
:1012D0002DFA01250990002003E00A214D43401C0E
:1012E000C0B2B842F9D300200890002F1AD0099854
:1012F000FFF760FA0F9901F00DFB08902846FFF701
:1013000059FA089901F0AEFA3F21090601F064FA92
:10131000FFF70CFA0890A84204D30998401C0990E2
:101320000020089009980025002804D13020694643
:10133000087501250BE00A21FFF772F805AA303184
:1013400051556D1CEDB2002801D00B2DF3D30A9836
:101350006A46002802D02D201055641C002005A9E3
:1013600009E02A1A5218203AD37F6A461355641CA2
:10137000401CE4B2C0B2A842F3D3002F20D02E21EB
:101380001155641CE4B200250CE00A210898FFF70F
:1013900047F87B1B09AA9A183031203AD1776D1C87
:1013A000EDB20890BD42F0D3002009AA694605E0DD
:1013B000135C0B55641C401CE4B2C0B2B842F7D3B6
:1013C00000206D462855074608E00E982022C019D7
:1013D000C1B20D98FFF776FE7F1CFFB2B742F4D37F
:1013E000B44211D3A01BC7B2002409E038192A5C0B
:1013F0000E980019C1B20D98FFF764FE641CE4B2A8
:10140000B442F3D311B0F0BD301B0E99C0B2002628
:101410000F1807E0B819C1B2AA5D0D98FFF752FE88
:10142000761CF6B2A642F5D3ECE7FFB5002589B0ED
:101430001E460F462C46089507E03819C1B22022F7
:101440000998FFF73FFE641CE4B2B442F5D30B9851
:101450000024002804D130206946087501240BE0DF
:101460000A21FEF7DDFF05AA30311155641CE4B2F4
:10147000002801D00B2CF3D308996846002902D02C
:101480002D2141556D1C002105AB08E0621AD218D0
:10149000203AD27F42556D1C491CEDB2C9B2A1421F
:1014A000F4D300214155B54211D3A91BCDB200247C
:1014B00009E029196846425C3819C1B20998FFF75A
:1014C00001FE641CE4B2B442F3D30DB0F0BD711B55
:1014D000C9B2002406467F1807E03819C1B2325D50
:1014E0000998FFF7EFFD641CE4B2AC42F5D3ECE7DA
:1014F00010B50446FFF7A4FD7820FFF775FD002026
:10150000FFF772FD2046FFF76FFDFFF7B5FD10BD39
:1015100010B50446FFF794FD7820FFF765FD4020E5
:10152000FFF762FD2046FFF75FFDFFF7A5FD10BD49
:101530007047000001490860704700004C0000201F
:1015400004498A010028086801D0104300E0904354
:10155000086070470000024004490A6807231B0521
:101560009A430A600A6802430A607047000002401A
:10157000044A0029116801D0014300E08143116051
:10158000704700000000024001220549D2050028F2
:10159000086801D0104300E09043086070470000E5
:1015A0000010024004490A6807231B059A430A6099
:1015B0000A6802430A60704700100240044A00298A
:1015C000116801D0014300E08143116070470000C1
:1015D0000010024001220549D2050028086801D008
:1015E000104300E090430860704700000020024074
:1015F00004490A6807231B059A430A600A680243E4
:101600000A60704700200240044A0029116801D096
:10161000014300E081431160704700000020024058
:1016200004490A6807231B059A430A600A680243B3
:101630000A6070470030004000B50246FF2000F00D
:10164000F1F8054940234869002A01D0184300E019
:101650009843486100BD00000030004000B50246DC
:10166000FF2000F0DFF805490B144869002A01D07B
:10167000184300E09843486100BD0000003000407E
:1016800000B50246FF2000F0CDF805492023486947
:10169000002A01D0184300E09843486100BD0000D3
:1016A0000030004010B500F0C7F810BD00B502468C
:1016B000FF2000F0B7F80549CB134869002A01D094
:1016C000184300E09843486100BD0000003000402E
:1016D00000B50346FF2000F0A5F804498A690220FE
:1016E00082438A618A691A438A6100BD00300040E2
:1016F00000B50246FF2000F095F80549022348692D
:10170000002A01D0184300E09843486100BD000062
:101710000030004000B50246FF2000F083F8054984
:10172000002A486902D00122104301E0400840002D
:10173000486100BD0030004030B50346FF2000F096
:1017400071F8194A506903242403A04320435061CF
:1017500016488025834218D0FF2000F063F85069B6
:101760000721C901884318435061506928435061DB
:101770005069000616D5D81FFF38FA3803D15069D2
:10178000A043A9010BE0002030BD5069A84350617F
:101790005069000606D450690121A043090308439B
:1017A0005061F0E7012030BD003000407FFF0000B5
:1017B00010B50C4C0423024601280ED0FF2000F087
:1017C00031F820699843206107498869E0239843EC
:1017D000886188691043886110BD206918432061C1
:1017E00010BD000000E000E0003000400549002886
:1017F000086902D00322104301E0800880000861DC
:101800007047000000E000E00449401E884203D811
:10181000034948610020886170470000FFFFFF0016
:1018200000E000E0402803D30249C8600020704770
:10183000012070470030004002480168491C0160E7
:10184000704700004800002010B500F02FF800F0AD
:101850005FF800F071F800F0B9F800F005F800F05A
:10186000FFF800F05FF910BD0EB5FF20FFF7DAFFBB
:101870000020FFF72DFF01210220FFF7C5FE012107
:101880000846FFF7C1FE212000016946088030208C
:101890004880F0200190FF20000202906846FFF788
:1018A00035FB0120FFF722FB0EBD000010B5FF2025
:1018B000FFF7B8FF0020FFF7E3FE0020FFF72AFF45
:1018C0000120FFF715FF0120FFF7B6FE0120FFF70B
:1018D000EDFE0020FFF7C2FE0C48FFF72DFF0020B1
:1018E000FFF79EFE0020FFF783FE0120FFF772FE48
:1018F0000020FFF731FE0120FFF722FE0020FFF756
:1019000051FE0120FFF740FE10BD00007FFF0000E8
:1019100010B5FF20FFF786FF0020FFF749FF0548BD
:10192000FFF772FF0021481E00F00EFF0120FFF7B5
:101930005DFF10BD0071020030B5012185B0084681
:10194000FFF716FE002468464480048083218480CB
:10195000090201811C4DC4806946284600F02EFB17
:1019600068468481C48103A9284600F0FDFA00215D
:10197000284600F0EDFA68460482448204A928460D
:1019800000F007FB32220221284600F00FFB322232
:101990000121284600F00AFB01221146284600F0EA
:1019A000EEFA01220221284600F0E9FA03210F2075
:1019B00000F0CAFE0F2000F0BBFE0121284600F017
:1019C000B3FA05B030BD00000001024030B585B06B
:1019D00001210820FFF7F2FD0024684644800480BE
:1019E00083218480090201811C4DC48069462846F8
:1019F00000F0E4FA68468481C48103A9284600F017
:101A0000B3FA0021284600F0A3FA68460482448213
:101A100004A9284600F0BDFA32220221284600F02F
:101A2000C5FA32220121284600F0C0FA01221146EF
:101A3000284600F0A4FA01220221284600F09FFA6D
:101A40000321142000F080FE142000F071FE01211B
:101A5000284600F069FA05B030BD0000C011024010
:101A600070B588B0012468468481C48100252A4E5F
:101A7000058203A93046FEF7CCFF02216846818229
:101A8000C482058305A93046FEF7C3FF01218020EB
:101A9000FFF794FD21480090E12002944002204C81
:101AA00001906946204600F015FB012211462046B0
:101AB00000F005FB00220421204600F000FB01227B
:101AC0000221204600F0FBFA0022A115204600F07A
:101AD000F6FA00226115204600F0F1FA0022E11426
:101AE000204600F0ECFA0221072000F02DFE07202E
:101AF00000F01EFE0021204600F00EFB01212046D2
:101B000000F026FB0121204600F00EFB2046FFF7E7
:101B100011FD08B070BD0000001001400048E80150
:101B20002010024070B588B0012468468481C481C9
:101B30000025214E058203A93046FEF76AFF0221E7
:101B400068468182C482058305A93046FEF761FF9D
:101B500001214802FFF70CFD18480090E120029493
:101B60004002174C01906946204600F0B3FA01226A
:101B70001146204600F0A3FA00220421204600F07E
:101B80009EFA01220221204600F099FA0321082042
:101B900000F0DAFD082000F0CBFD0021204600F027
:101BA000BBFA0121204600F0D3FA0121204600F0C3
:101BB000BBFA08B070BD0000001201400048E80107
:101BC000A0000240704770470021074801220160D1
:101BD0004160027242728172C172017301610175CA
:101BE00002494275C860704750000020080000207C
:101BF00070B50D460646002404E0305D00F006F89E
:101C0000641CA4B2AC42F8D370BD000010B5084CFF
:101C10000146204600F098FA0221204600F048FADA
:101C20000028F9D00221204600F040FA10BD000043
:101C300020100240F8B50025022701262F4C030092
:101C400000F068FD0B17070A18282E43484D522054
:101C50001700267002204EE025700220FFF7E6F8FC
:101C60000320FFF7E3F80420FFF7E0F80520FFF773
:101C7000DDF8F8BD0320FFF7F7F800F0ADFCE068F1
:101C80008673F8BD0320FFF7D1F800F0B3FCE068DD
:101C90008573F8BD0420FFF705F900F095FCF8BD49
:101CA0000520FFF7FFF8E068817A002904D00129B8
:101CB00005D00229F3D105E08672C672F8BD87729D
:101CC000C772F8BD8572C572F8BD0520FFF7EAF846
:101CD000E068F7E70520FFF7E5F8E068ECE70520A6
:101CE000FFF7E0F8E068EAE70320FFF7BDF804201B
:101CF000FFF7BAF80520FFF7B7F8F8BD0800002095
:101D00007047000001200249C0068860704700004B
:101D100000ED00E010B5064CA078002807D005487B
:101D20000078002801D000F09DFB0020A07010BDBD
:101D3000080000203100002070B508210120FEF7C6
:101D40005DFF0025224C002803D00220FFF772FF20
:101D5000258108210420FEF751FF002808D0E06803
:101D6000006900F0E3FBE068012101754175258100
:101D700008210220FEF742FF00280FD0E268517DC3
:101D8000012904D0052904D00A2905D103E0052042
:101D900002E00A2000E06420507525812021022005
:101DA000FEF72CFF002802D0E0680561258108219C
:101DB0000320FEF723FF002808D0E668707DFEF7B9
:101DC000F9FC316900F008FD3061258170BD00002B
:101DD0000800002010B5FEF793FE00F0DDFBFFF7D2
:101DE000F3FE044802210170002101818180C1803D
:101DF00010BD00000800002070B500F007FB04468D
:101E000008210120FEF7FAFE00262D4D002801D101
:101E1000022C03D10220FFF70DFF2E8108210220A2
:101E2000FEF7ECFE002801D1032C07D1E868807B87
:101E3000002806D00A20FFF7FDFE2E810A2C02D0D2
:101E400005E00320F7E70A20FFF7F4FE2E810821C2
:101E50000320FEF7D3FE002801D1042C03D1042077
:101E6000FFF7E8FE2E8108210420FEF7C7FE0028B8
:101E700003D00520FFF7DEFE2E8120210220FEF791
:101E8000BDFE002805D00920FFF7D4FE03202870EE
:101E90002E81062C0CD0072C0CD0082C0ED0092C2F
:101EA00005D1E868827A03C800F0ECFA2E8170BD93
:101EB000062000E00720FFF7BDFEF7E70820FAE75D
:101EC0000800002010B500F0A1FA04460821012006
:101ED000FEF794FE002801D1012C05D10120FFF767
:101EE000A9FE02490120087010BD00000800002072
:101EF00010B500F053FA10BD704770477047704737
:101F000010B5074C0121204600F01AF8012805D130
:101F10000121204600F006F8FEF7CEFE10BD0000BD
:101F2000C0110240C16070470029016802D08022C0
:101F3000114301E0014A1140016070477FFF00003A
:101F40000246D26800200A4200D0012070470000FB
:101F50000029016802D00122114301E0014A114029
:101F600001607047FEFF000010B54A880B880168C9
:101F70003C2489B2A1431A430A43026010BD002ADF
:101F8000826901D00A4302E0C94389B20A408261F2
:101F9000704710B54A880B8801680F24E4025B0380
:101FA000D202A14313430B43036010BD022903D0A7
:101FB000012900D1426170470261704730B5026863
:101FC000074B8C881A400B88CD8823434C882C43C0
:101FD00023431343036009898160416030BD0000E1
:101FE0009DF8FFFF7047704710B51D4C012120463A
:101FF00000F05EF801282ED1204600F0A1F8194A21
:102000001070194801230178002908D001290BD04C
:1020100002290ED0032911D0042915D017E0117818
:10202000002914D1037012E01178AA290FD10221DE
:1020300008E011780D4A1170032103E01178AA29F4
:1020400005D10421017002E01178002904D001219A
:10205000204600F02BF810BD002101700448E1E794
:102060002010024046000020040000204400002010
:102070004500002010B50A4C0121204600F018F858
:1020800001280BD1204600F05BF80649088006497C
:10209000012008700146204600F008F810BD00003D
:1020A000A0000240020000200000002041607047B4
:1020B0000246526800200A4200D001207047002AE0
:1020C000026901D00A4302E0C94389B20A400261B1
:1020D0007047000070B5044600688A68C008C000F8
:1020E000024322608868102500280CD005C91146DB
:1020F000FEF796F90749884203D9216829432160F0
:102100000009A06070BD2068A843206020682843B3
:10211000206070BDFFFF0000026803239B039A4309
:102120000A430260704700000029016802D0402283
:10213000114301E0014A114001607047BFFF0000F8
:10214000C068C005C00D7047C905C90DC1607047A2
:102150000029016802D08022114301E0014A1140A8
:10216000016070477FFF000070B5524C0025617818
:10217000002835D0012839D0022602283FD0032874
:102180002DD1E068007D002877D000F05BFA0221B5
:1021900049A20846FEF7C4FFFF20F530FEF7BFFB5B
:1021A0000320FEF743FE0420FEF740FE0520FEF765
:1021B0003DFE2670E0680575E0680069FEF7B6FA36
:1021C0000246062307210220FFF72FF9E0680323C8
:1021D000427D08210420FFF728F90320607070BDBC
:1021E000002901D000F02EFA657070BD00F02AFAC7
:1021F000022135A20846FEF793FF0120EEE70229EF
:102200000BD000F01FFA012133A20846FEF788FF29
:1022100034A201210220FEF783FFE068C07A002883
:1022200004D0012804D0022804D009E030A302E041
:1022300030A300E031A3022207210120FEF7F6FFC0
:10224000E068807A002804D0012804D0022804D055
:1022500009E027A302E027A300E028A30222072128
:102260001046FEF7E3FFE078002803D0E570E06851
:1022700000F052F8667070BDFFE703299CD000F0B3
:10228000E1F91FA203210120FEF74AFF022215A354
:1022900001211046FEF7CAFF022215A307211046AE
:1022A000FEF7C4FF1AA3022204210320FEF7BEFF9B
:1022B00082E7000008000020E6A0A1E58786E5AEE1
:1022C0008CE6889000000000E6ADA3E59CA8E588B8
:1022D0009DE5A78BE58C9600E79AAEE9878DEFBC6C
:1022E0009A000000E9878DE9878FEFBC9A00000013
:1022F000E5858B00E58D83E5858B0000E696A400DF
:10230000E6A0A1E58786E6A8A1E5BC8F0000000055
:10231000E6ADA5E995BF0000F8B51F497D26CA685E
:10232000F600917A73100546002904D0012904D0E3
:10233000022905D103E0012002E0304600E0184602
:10234000D17A002904D0012904D0022905D103E063
:10235000012402E0344600E01C46FEF72BFA014659
:102360006868FEF70DF90246687A00900623072197
:102370000120FEF79BFF2046FEF71CFA0146286865
:10238000FEF7FEF80246287A009006230721022075
:10239000FEF78CFFF8BD00000800002070B5184C57
:1023A00001212046FFF7CCFD012828D1012120463C
:1023B000FFF7B8FD134C2078002820D0E088401C9F
:1023C000E080E1887D22D20001200025914201D3E6
:1023D000E070E580A188491CA180A1887D221201BE
:1023E000914201D3A070A5802089401C20812089C2
:1023F0000549884203D30220FFF71CFC258170BDEC
:1024000000010240080000203075000000B51448AB
:102410004178012921D1002141700078030000F0AA
:1024200079F9110A0E10121416181A1C1C1C1C1C07
:102430001C1C1C0C1C00012000BD022000BD032040
:1024400000BD042000BD062000BD072000BD0820FF
:1024500000BD092000BD0A2000BD002000BD000015
:10246000440000201CB5AA206B46187055215970F5
:1024700003229A70D970187105216846FFF7B8FBDE
:102480001CBD0000F7B586B00746AA256846057052
:102490005526467082703846FEF722F90446FEF74C
:1024A00081F9394600F036FA1F4F394600F0DAF963
:1024B000FEF716F9002800DA4042220E69468A71BA
:1024C00022144A7122120A71CC70020E8A7202140E
:1024D0004A7202120A72C8710798FEF701F904469F
:1024E000FEF760F9079900F015FA394600F0BAF9DD
:1024F000FEF7F6F8002800DA4042210E6A46917392
:102500002114517321121173D472010E91740114AC
:10251000517401121174D073D674157515211046BB
:10252000FFF766FB09B0F0BD0000204170B505461D
:102530000120C005854209DB054C61682069401A0D
:10254000FEF730F92946FEF71BF8E06070BD000089
:102550003000002010B5044CA068FEF723F9E168B4
:10256000FEF70EF810BD00003000002010B5094C39
:10257000217820464068002901D0A16840182169CF
:10258000081A00D50020FEF70DF9E168FDF7F8FF05
:1025900010BD00003000002070B50948FEF7E6F9D4
:1025A0000024084DFEF7CAFA01460548FEF7EFF988
:1025B000641C2861142CF5DB68600020A86070BDE5
:1025C00078000020300000200248016941600021AD
:1025D000017070473000002005480178002905D1BE
:1025E00042680169891A8160012101707047000009
:1025F0003000002003480178002902D000218160CA
:10260000017070473000002010B5FEF797FA0146C0
:102610000948FEF7BCF9094C20616168401AFEF7D1
:10262000C1F8E168FDF7ACFF0549884201DD0120F2
:1026300000E00020607010BD780000203000002015
:1026400000007A4470B5002500212846FEF72AFDD7
:1026500000240020FEF75CFF641CE4B2802CF8D359
:102660006D1CEDB2082DEFD370BD10B500217D2299
:10267000D2000020401C9042FCD3491C9142F8D368
:10268000FEF794FCAE20FEF733FFD520FEF730FFB7
:102690008020FEF72DFFA820FEF72AFF3F20FEF73F
:1026A00027FFD320FEF724FF0020FEF721FF402064
:1026B000FEF71EFFA120FEF71BFFC820FEF718FF44
:1026C000DA20FEF715FF1220FEF712FF8120FEF739
:1026D0000FFFCF20FEF70CFFD920FEF709FFF120F6
:1026E000FEF706FFDB20FEF703FF3020FEF700FFBA
:1026F000A420FEF7FDFEA620FEF7FAFE8D20FEF7D1
:10270000F7FE1420FEF7F4FEAF20FEF7F1FEFFF710
:1027100099FF10BD30B47446641E2578641CAB422A
:1027200000D21D46635D5B00E31830BC1847000013
:10273000002805DBC106C90E012088400149086058
:102740007047000000E100E08307FF22DB0E9A40A3
:102750008907090E9940002808DB830809489B0077
:102760001818036893430B43036070470007000F7A
:102770000838830804489B001818C36993430B4327
:10278000C361704700E400E000ED00E0007801065E
:1027900010D54109062907D001090E2906D0C10824
:1027A0001E2905D0802805D30220704703207047DA
:1027B00004207047012070477047FEF71BFAFEF7B0
:1027C0004FFAFEF711FBFFF750FFFEF799F9FFF7FD
:1027D000E3FEFEF7B7FBFCE770B501250400ED074B
:1027E0004C4020D4441A01D2001B0919C60D4B00DD
:1027F000F2B2FF2A29D01B0E2CD000020C02D31AF1
:102800002C43DC402843051910D2280A02D3401C6F
:102810006D0611D0761EF6058019FF2A00DA70BD0C
:10282000C00DC00570BD694000F086F80120054369
:10283000C541521C761CE8E764089C40C901614010
:102840008900E7D10124A043E4E71B0E440200D035
:10285000034870BD002AFCD1C00FC00770BD00BF87
:102860000000C07F70B5420064414B005C41120E15
:1028700039D01B0E38D0FF2A3CD0FF2B3AD0400273
:102880004902400A490A060045184E43000A090A4F
:10289000D2184843ED017F3A0104731A4019190C0C
:1028A0004318990F04D001215B0849075B1A521C99
:1028B000D80904D3401CF50301D19D0607D0FF2A97
:1028C00008D2D50506D0E4072043401970BD012584
:1028D000A843F4E7002A01DCE00770BD2402FF20D2
:1028E0002043C00570BD1B0EFF2A03D0FF2B01D073
:1028F000E00770BDFF2645003606B54206D84D00FC
:10290000B54203D8D218FF2A00D0E7E7004870BDCF
:102910000000C07F70B50125ED07684004004C4001
:1029200002D5694000F008F8FFF75CFF70B501259B
:102930000400ED074C4022D4441A02D26C40001B24
:102940000919C60D4B00F2B2FF2A4BD01B0E50D016
:1029500000020C02D31A2C43DC40A843051B05D50A
:10296000AD0019D36D08761E521E37D0F605280A21
:1029700001D2801970BD70416D0603D070BD6940F1
:10298000FFF730FF9C4009026140490001D0401E22
:1029900070BD0124A04370BD6D081DD001202B0C1B
:1029A00001D12D0410302B0E01D12D0208302B0F38
:1029B00001D12D01001DAB0F01D1AD00801CEB0F2B
:1029C00001D16D00401C6D00361A121A680AF50517
:1029D0004019012A02DB70BD002070BDC036300AEC
:1029E000C00770BD1B0E440201D1FF2B00D102486D
:1029F00070BD002AF0D070BD0000C07F0000000054
:102A0000000000000000000000000000000000F8CE
:102A100000000000000000333000000000100C0631
:102A2000100C0600000000000000000040C07840CC
:102A3000C0784000043F04043F040400007088FC98
:102A400008300000001820FF211E0000F008F000F0
:102A5000E018000000211C031E211E0000F0088861
:102A6000700000001E2123241927211010160E00CB
:102A7000000000000000000000000000000000E076
:102A8000180402000000000718204000000204188B
:102A9000E00000000040201807000000404080F0E7
:102AA000804040000202010F01020200000000F01D
:102AB000000000000101011F0101010000000000F1
:102AC0000000000080B07000000000000000000066
:102AD00000000000000101010101010100000000EF
:102AE0000000000000303000000000000000000086
:102AF00080601804006018060100000000E0100863
:102B00000810E000000F102020100F00001010F837
:102B1000000000000020203F202000000070080876
:102B200008887000003028242221300000300888F6
:102B3000884830000018202020110E000000C0201E
:102B400010F8000000070424243F240000F808883F
:102B5000880808000019212020110E0000E01088CC
:102B600088180000000F112020110E0000380808FE
:102B7000C83808000000003F00000000007088080E
:102B800008887000001C222121221C0000E010088F
:102B90000810E0000000312222110F00000000C0E8
:102BA000C000000000000030300000000000008085
:102BB0000000000000008060000000000000804075
:102BC000201008000001020408102000404040408E
:102BD00040404000040404040404040000081020E1
:102BE0004080000000201008040201000070480826
:102BF0000808F0000000003036010000C030C8288E
:102C0000E810E0000718272423140B000000C03848
:102C1000E0000000203C23020227382008F88888C2
:102C200088700000203F202020110E00C0300808CE
:102C300008083800071820202010080008F80808A5
:102C40000810E000203F202020100F0008F888889E
:102C5000E8081000203F20202320180008F888886A
:102C6000E8081000203F200003000000C0300808E2
:102C70000838000007182020221E020008F808006B
:102C80000008F808203F210101213F20000808F832
:102C9000080800000020203F202000000000080855
:102CA000F8080800C08080807F00000008F888C015
:102CB00028180800203F20012638200008F80800C6
:102CC00000000000203F20202020300008F8F800FD
:102CD000F8F80800203F003F003F200008F830C00F
:102CE0000008F808203F200007183F00E0100808FF
:102CF0000810E0000F10202020100F0008F808082E
:102D00000808F000203F210101010000E010080840
:102D10000810E0000F18242438504F0008F8888865
:102D200088887000203F2000030C30200070880845
:102D3000080838000038202121221C00180808F853
:102D4000080818000000203F2000000008F80800D4
:102D50000008F808001F202020201F0008788800A5
:102D600000C83808000007380E010000F80800F815
:102D70000008F800033C0700073C030008186880BF
:102D80008068180820302C03032C30200838C80035
:102D9000C83808000000203F200000001008080884
:102DA000C83808002038262120201800000000FE26
:102DB000020202000000007F40404000000C30C0D2
:102DC00000000000000000010638C00000020202FE
:102DD000FE000000004040407F00000000000402B0
:102DE00002020400000000000000000000000000DB
:102DF00000000000808080808080808000020204CB
:102E000000000000000000000000000000008080C2
:102E1000808000000019242222223F2008F8008030
:102E200080000000003F112020110E0000000080F3
:102E300080800000000E1120202011000000008082
:102E40008088F800000E112020103F2000008080B4
:102E500080800000001F222222221300008080F0C8
:102E6000888888180020203F2020000000008080F3
:102E700080808000006B94949493600008F8008038
:102E800080800000203F210000203F200080989893
:102E9000000000000020203F2020000000000080F3
:102EA0009898000000C08080807F000008F8000033
:102EB00080808000203F24022D302000000808F888
:102EC000000000000020203F202000008080808043
:102ED00080808000203F20003F20003F80800080D5
:102EE00080800000203F210000203F2000008080E3
:102EF00080800000001F202020201F008080008094
:102F00008000000080FFA12020110E000000008042
:102F100080808000000E112020A0FF808080800033
:102F20008080800020203F21200001000000808060
:102F3000808080000033242424241900008080E055
:102F4000808000000000001F202000008080000022
:102F500000808000001F202020103F208080800003
:102F60000080808000010E30080601008080008013
:102F7000008080800F300C030C300F000080800038
:102F8000808080000020312E0E3120008080800063
:102F90000080808080818E70180601000080808013
:102FA000808080000021302C2221300000000000B1
:102FB000807C020200000000003F40400000000052
:102FC000FF00000000000000FF0000000002027C83
:102FD000800000000040403F0000000000060101AA
:102FE000020204040000000000000000E79AAE00A6
:102FF0000000F80888888888FF888888A81800005A
:1030000080601F80804244281028244241C0400034
:10301000E9878D0008080AEAAAAAAAFEAAAAA9F9BD
:10302000290C08004040484B4A4A4A7F4A4A4A4BCA
:1030300048604000E9878F00202020BEAAAAAAAAE3
:10304000AAAAAABF22302000008080AFAAAAAAFFA5
:10305000AAAAAAAF80800000E4BBB700804020F895
:10306000874020900807089020C04000000000FF23
:103070000080403F000000FF00000000E6A0BC0010
:103080001010D0FF50B01817A444A4140C00000076
:10309000040300FF0804FE4544444445FE060200C4
:1030A000EFBC9A000000000080C0C080000000005B
:1030B0000000000000000000317B7B3100000000B8
:1030C00000000000E58D830080808484848484FC7B
:1030D0008282838280C0800000000000000000FF28
:1030E0000000000000000000E5858B00040404E4FB
:1030F0002424243F242424F4240604000080804750
:10310000221E0202027E82878080E000E696A400F2
:10311000000000FC4444444444C442434260400034
:103120000040300F0000000000FF00000000000021
:10313000E58D95000000F8494A4C48F8484C4A494A
:10314000FC08000010101712121212FF12121212B5
:1031500013181000E58583002020222222E222227B
:1031600022E2222322302000808040201807000025
:10317000003F4040404070002F0000000000000071
:103180000000000080402010080402000000201011
:10319000080402010000000000000000E8AFB700D2
:1031A0002022EC002022AAAAAABFAAAAEBA22000F1
:1031B00000007F201000FF0A0A0A4A8A7F000000F0
:1031C000E8BE930088681FC80C2890A8A6A12628EE
:1031D00010B01000090905FF0500FF0A8AFF001F53
:1031E00080FF0000E585A500000000000001E21C52
:1031F000E000000000000000804020100C030000F0
:1032000000030C3040C04000E6ADA300000202C243
:10321000020202FE82828282820200004040407FDF
:103220004040407F4040404040404000E59CA80076
:10323000080888C8380C0B0808E8080808080800BF
:10324000020100FF40414141417F41414141400075
:10325000E5889D00080889EA1888000404FC040435
:1032600004FC0000020100FF018640201807408096
:10327000403F0000E5A78B001010F01F10F0004049
:10328000E05847405060C000402215081621000059
:10329000FE42424242FE0000E58C9600008060F84B
:1032A00007000000FF40201008040000010000FF9C
:1032B000000402013F40404040407800E6A0A100E9
:1032C0001010D0FF90108848A8090A08A84CC80020
:1032D000040300FF808140402116081661C04000B1
:1032E000E5878600000204EC4020F84F4849FE487C
:1032F000684C080002027F000000FF2222223F22C9
:1033000023322000E6A8A1001010D0FF9414E4BFDF
:10331000A4A4A4BFF4260400040300FF08898B4A78
:103320002A1E2A2A4BC84800E5BC8F001010909036
:1033300090909010FF1012141018100000206020C0
:103340001F1010080106182040807000E6ADA5008F
:10335000404040407E4040FF4848484C4860400064
:10336000008088844342202F10100C0302000000CC
:10337000E995BF0080808080FF8080A0908884864F
:1033800080C0800000000000FF404023040810209F
:1033900060200000E5AE8C00100C042424242526B7
:1033A0002424342484140C0000818141310F010154
:1033B0003F41414141417000E68890000000F8889B
:1033C000888888087F880A0C08C8000040201F00F1
:1033D00008100F4020131C244380F0008182838456
:1033E00085868788898B8C8D8E8F91929395969701
:1033F000999A9C9D9FA0A2A3A5A7A8AAACAEB0B283
:10340000B3B5B7B9BCBEC0C2C5C7C9CCCED1D4D77D
:10341000D9DCDFE2E6E9ECF0F3F7FAFE3C34000831
:103420000000002050000000040100088C34000857
:1034300050000020F00700002001000800000000FC
:10344000000000000000000000000000000000007C
:10345000000000000000000000000000000000006C
:10346000000000000000000000000000000000005C
:103470000000000000000000002085440000000063
:0C34800000000000000000000000000040
:04000005080000C12E
:00000001FF
